:020000040000FA
:1000000018F09FE518F09FE518F09FE518F09FE5C0
:1000100018F09FE50000A0E1F0FF1FE518F09FE554
:100020005800000040000000B0220000480000001E
:100030004C000000000000005000000054000000D0
:10004000FEFFFFEAFEFFFFEAFEFFFFEAFEFFFFEA18
:10005000FEFFFFEAFEFFFFEA94009FE5AA10A0E37F
:100060005520A0E32430A0E3043080E50130A0E374
:10007000003080E50C1080E50C2080E5083090E52C
:10008000013B13E2FCFFFF0A0330A0E3003080E5F0
:100090000C1080E50C2080E558009FE50410A0E3DB
:1000A000041080E50210A0E3001080E548009FE501
:1000B000DBF021E300D0A0E1080040E2D7F021E32B
:1000C00000D0A0E1080040E2D1F021E300D0A0E19F
:1000D000080040E2D2F021E300D0A0E1030C40E2AE
:1000E000D3F021E300D0A0E1030C40E20C009FE537
:1000F00010FF2FE180C01FE000C01FE0A01F0040E4
:1001000004010000000000EB2E0000EB2C008FE249
:10011000000C90E800A08AE000B08BE001704AE299
:100120000B005AE10000001A260000EB0F00BAE8AD
:1001300018E04FE2010013E303F0471013FF2FE133
:100140003423000054230000102052E27800B0282D
:100150007800A128FBFFFF8A822EB0E13000B02892
:100160003000A12800409045004081451EFF2FE14E
:100170000030B0E30040B0E30050B0E30060B0E313
:10018000102052E27800A128FCFFFF8A822EB0E105
:100190003000A128003081451EFF2FE101C08FE211
:1001A0001CFF2FE11FB5059886460FBC009C02B0CE
:1001B0007047000001C08FE21CFF2FE130B475468C
:1001C000AE4630BC70470000FB0700EB0210A0E118
:1001D000F1FFFFEB1CC09FE50FC08CE001001CE3AA
:1001E0000DE08F120FE0A0011CFF2FE101C08FE294
:1001F0001CFF2FE102F012F8630000007847C046B0
:1002000003002DE9EAFFFFEB0300BDE8080800EB5F
:100210000C009FE50C109FE504209FE508309FE54A
:100220001EFF2FE180190040881C0040801900400B
:1002300086B005E001A800F031F901A800F04EF900
:10024000F8E782B000F014F84B20C00100F0DAF8B3
:100250000020012103006422009101900100034865
:1002600000F01CFA00F0EDFDC046FEE73102000090
:10027000334880690F21090408433149886101200E
:100280000004486170470F2109042D4AD1610028FC
:1002900006D0012809D002280CD0032814D10EE082
:1002A00001210904264A51610FE001214904244A31
:1002B00051610AE001218904214A516105E00121CF
:1002C000C9041F4A516100E0C046C04670470F2074
:1002D00000041B49C861704700B50300012B05D11C
:1002E00018480068401C1749086004E01548006879
:1002F000401E14490860134909788807800FFFF7EA
:10030000C2FF08BC184700B50120FFF7E5FF08BC95
:10031000184700B50020FFF7DFFF08BC18470100B1
:100320000A001032012393401800054A1269024264
:1003300002D0034AD06101E0014A506170470000D9
:10034000008002E0000000401F502DE904D04DE283
:100350009C009FE50840D0E50F0004E2040050E354
:100360000800001A88009FE50000D0E584109FE592
:100370000000C1E50030A0E30320A0E178009FE584
:10038000000090E51E0800EB0F0004E2020050E3BD
:100390001200001A0020A0E30D10A0E15C009FE510
:1003A000000090E5190800EB0000DDE5000050E3D7
:1003B0000300000A0000DDE534109FE50000C1E500
:1003C000050000EA0000DDE5000050E30200001A2D
:1003D0000D00A0E318109FE50000C1E50000A0E1BA
:1003E0000000A0E3D00F00E504D08DE21F50BDE86F
:1003F00004F05EE200C000E004000040080000409D
:100400000C00004010B50400434800680521084373
:10041000414908604148007B832108433F490873F4
:1004200021003F4801F012FF3C4908700800007BA2
:100430008021884339490873080000790321084363
:10044000364908713748384988602620374988601E
:1004500037480069402108433549086100220121DD
:10046000142001F063F833490860002201211420B0
:1004700001F05CF83049086010BC08BC1847C04661
:1004800008B50022D24369462A48006801F015FAEF
:100490006846007801B008BC1847C04638B504006B
:1004A00000256A1E69462348006801F006FA0CE040
:1004B000684600786055681C05062D0E0022D24360
:1004C00069461C48006801F0F8F9684600780D2874
:1004D000EED10020605538BC08BC184770B5040048
:1004E0002678012509E061190023142212480068CA
:1004F00001F0D0F8681C05062D0E605D0028F2D1D1
:100500006119002314220C48006801F0C3F8034865
:10051000067070BC08BC184700C002E000C000E0D4
:100520001C4E0E004803000000F1FFFF00F2FFFF29
:1005300000F0FFFF080000400C00004010B5002450
:1005400006E014216143FA4A881800F053FF641C46
:10055000042CF6D3F74800F04DFFF74800F04AFFAF
:10056000F64800F047FFF64800F044FFF54800F079
:1005700041FFF048F4490860EF48F449086010BCB6
:1005800008BC184710B5040001F0DBFBF048006818
:10059000401CEF490860EF480068002808D1ED488A
:1005A00004600800006801280ED1FFF7C7FF0BE0C8
:1005B000E9480068002807D1E6480068C06AE16A97
:1005C000884201D8E3480460E4480068401CE349DD
:1005D0000860E349E06A0968884202D9E049E06AB4
:1005E00008601422E16A5143D14A8818211D00F0A5
:1005F00011FF01F0B1FBD8480068002807D0D548AA
:100600000068C06AE16A884201D201F007FF10BCAD
:1006100008BC1847FFB581B00E000A9F0C9C216BE7
:100620000398401E8000081800900098C008C00081
:100630000090002508E0715D200034304155705D68
:10064000002800D102E06D1C082DF4D3C046002123
:100650003B200155042F00D30327E762201D00F043
:10066000D6FE2000183000F0D2FE24610420C01B0A
:10067000A06164620020E063002140200155049ADB
:10068000684603C801F0F6FA20600B98002801D0F4
:100690000B98046005B0F0BC08BC1847FFB585B0E6
:1006A0001700B80001F0A5FB0600002E0BD0442077
:1006B00001F09FFB0400002C01D0266304E0300011
:1006C00001F0EBFB00E00024002C10D000220EA86B
:1006D00003C86B4613C303923A00089B05A803C8DE
:1006E000FFF798FF2000FFF74DFF012501E00025EF
:1006F000ED43280009B0F0BC08BC184792490968CE
:100700000968002901D1012100E00021002904D05D
:100710000021C943934A116006E08B490968C96802
:10072000C868904A41681160704710B50400206B9A
:1007300001F0B3FB200001F0B0FB10BC08BC18476F
:1007400070B5050001F0FDFA002D02D18148006866
:1007500000E028000400201D00F083FEA06A0028AD
:1007600003D02000183000F07CFE7C480068401C5C
:100770007A49086077480068844209D1211D704891
:1007800000F048FE78480068401C7749086009E09E
:100790006F480068401E6E4908602000FFF7C5FFE3
:1007A000FFF7ACFF01F0D8FA6B480068002805D0CD
:1007B00068480068844201D101F030FE70BC08BC7A
:1007C0001847F8B50020009068480068002864D1F8
:1007D00067480068451C66480560002D0FD15A48DF
:1007E00007685A48006858490860584807606148D7
:1007F0000068401C5F490860FFF780FFC046594809
:10080000006885423DD3C0464F4800680068002814
:1008100001D1012000E00020002804D00020C043C6
:10082000504908602CE048480068C068C4686668A1
:10083000B54202D24B48066022E0201D00F011FEB6
:10084000A06A002803D02000183000F00AFE4449B6
:10085000E06A0968884202D94149E06A08601422C6
:10086000E16A5143324A8818211D00F0D3FD39490D
:10087000E06A0968C96A8842C6D301200090C3E7CC
:10088000C04634480068C06A1421484328490858C3
:10089000012801D90120009004E037480068401C7D
:1008A0003549086035480068002801D001200090D3
:1008B0000098F8BC08BC184770B50024002601F069
:1008C00040FA2A480068401E28490860080000686D
:1008D000002875D11E480068002871D022E0174812
:1008E000C068C4682000183000F0BBFD201D00F077
:1008F000B8FD1B49E06A0968884202D91849E06AD4
:1009000008601422E16A5143094A8818211D00F049
:1009100081FD1049E06A0968C96A884202D3012052
:100920001649086005480068002829D1012028E000
:1009300068000040B8000040CC000040E0000040EB
:10094000F40000400801004044000040480000401E
:100950001800004010000040240000403400004017
:1009600020000040380000401400004040000040DB
:100970001C00004030000040280000402C000040D7
:1009800000200028ABD0002C01D0FFF7B7FEFE48B6
:100990000568002D0DD0C046FFF713FF002802D0D8
:1009A0000120FA4908606D1E002DF5D10020F6499E
:1009B0000860F6480068002802D0012601F02EFDEC
:1009C00001F0CAF9300070BC08BC1847F8B5050042
:1009D0000E00EF480768EF480068001D00F041FD79
:1009E000681C08D1002E06D0EA480168091DEA48B3
:1009F00000F010FD1AE07C19E64800684460BC4233
:100A000007D2E4480168091DE448006800F00EFDC3
:100A10000CE0E0480168091DE148006800F006FDAF
:100A2000E0480068844201D2DE480460F8BC08BC9B
:100A30001847DD480068401CDB4908607047F3B583
:100A400081B0040000200090FFF7F3FFD048066853
:100A5000216802980D182068B04207D92068A84282
:100A60000BD9B54209D90120009006E02068A842C0
:100A700001D8B54201D901200090256000980028D6
:100A800003D0A81B0021FFF7A1FFFFF715FF070008
:100A9000002F01D101F0C2FCFEBC08BC184770B5A4
:100AA00004000025002C08D0FFF7C3FF0021200020
:100AB000FFF78CFFFFF700FF0500002D01D101F0CB
:100AC000ADFC70BC08BC184770B5040001F039F9E2
:100AD000002C02D1AF48006800E020000600F56A53
:100AE00001F03AF9280070BC08BC184710B40100A6
:100AF0000023002902D1A74C246800E00C0022004A
:100B0000D06A10BC7047FEB507000D0000200090B1
:100B1000042D00D3032501F014F9002F02D19D48C4
:100B2000006800E038000400E66AAE4243D0B542F7
:100B30000BD99848006884420DD096480068C06A76
:100B4000A84208D80120009005E09248006884423D
:100B500001D101200090E06A0190E562A069C00F18
:100B6000C00702D10420401BA061616914220198D2
:100B700050438E4A8018814201D1012000E00020BC
:100B8000002812D0201D00F06CFC8949E06A096839
:100B9000884202D98649E06A08601422E16A51431A
:100BA000824A8818211D00F035FC0098002801D0E9
:100BB00001F034FCC04601F0CFF8FEBC08BC184779
:100BC00079480068002803D001207049086027E0B8
:100BD00000206E4908607648016800E0491E142034
:100BE0004843724A1058002801D1012000E000203B
:100BF0000028F3D114224A436C4BD0184268526843
:100C00004260020008324368934202D1426852684F
:100C100042604268D2685F4B1A6065480160C04616
:100C2000704770B5050001F08CF8002D02D15948CD
:100C3000006800E028000400201D00F012FCA06AFB
:100C4000002803D02000183000F00BFC211D524872
:100C500000F0E0FB4020005D012802D1002140208F
:100C6000015501F079F853480068002805D001F0DB
:100C700068F8FFF743FD01F06FF8464800688442CA
:100C800012D14C480068002802D001F0C7FB0BE0ED
:100C90004148006848490968884203D100203D491D
:100CA000086001E0FFF78CFF70BC08BC184710B467
:100CB000010000200A00384C5369A34201D10123EE
:100CC00000E00023002B11D03C4C936AA34201D1D9
:100CD000012300E00023002B08D1936A002B01D1EF
:100CE000012300E00023002B00D0012010BC70473E
:100CF00070B505002C00002C27D0264800688442DF
:100D000023D001F01EF82000FFF7D1FF00281AD0F1
:100D1000201D00F0A6FB2649E06A0968884202D936
:100D20002349E06A08601422E16A51431F4A881887
:100D3000211D00F06FFB1749E06A0968C96A884203
:100D400001D301F06BFB01F007F870BC08BC184739
:100D5000F8B5050000262C0000272000FFF7A7FFAC
:100D6000002840D010480068002837D10949E06ABF
:100D70000968C96A884200D30126201D00F071FB72
:100D80000B49E06A09681BE0280000402C00004085
:100D90001C000040100000400801004048000040D6
:100DA000440000403800004040000040680000401F
:100DB000200000402400004018000040E0000040F7
:100DC000884202D9FB49E06A08601422E16A514373
:100DD000F94A8818211D00F01DFB04E0210018319C
:100DE000F64800F017FB3000F8BC08BC184710B5F7
:100DF00016E000F0A6FFF248C068C468201D00F0AD
:100E000030FBF0480068401EEE490860EE4800687C
:100E1000401EED49086000F09FFF2000FFF785FCB1
:100E2000E94800680028E4D110BC08BC1847C04657
:100E3000FFF7DDFFE04800680128F9D901F0EEFA7C
:100E4000F6E71CB5E14800210B005A220091019001
:100E5000DFA1E148FFF722FC0400012C0CD101F0D6
:100E6000E1FAA01EDD4908600120DD49086000208C
:100E7000DC49086000F05BFF1CBC08BC184710B5DB
:100E800001F0D0FA0020D649086000F059FF10BCEC
:100E900008BC184710B500F054FFD248046800F0B1
:100EA0005BFF200010BC08BC18470021CD4A106829
:100EB0007047C448006870470100002902D1CA4841
:100EC000006800E00800020010003430704770B580
:100ED00005000C00C44801681831280000F0A6FA8B
:100EE00001212000FFF772FD70BC08BC184770B5E7
:100EF00006000C0015000120C0072043BA4909680C
:100F00008861B94801681831300000F083FA012186
:100F10002800FFF75BFD70BC08BC184770B50600E1
:100F2000F068C4682000183000F09BFAAF480068F1
:100F3000002813D1201D00F094FA9E49E06A096848
:100F4000884202D99B49E06A08601422E16A514351
:100F5000994A8818211D00F05DFA04E0210018313B
:100F6000964800F057FAA049E06A0968C96A8842C1
:100F700004D9012501209E49086000E000252800D1
:100F800070BC08BC184770B505000E000120C007F2
:100F900030432860EC68280000F063FA201D00F060
:100FA00060FA8449E06A0968884202D98149E06AA6
:100FB00008601422E16A51437F4A8818211D00F01D
:100FC00029FA8949E06A0968C96A884202D9012078
:100FD0008749086070BC08BC184710B5040000F0D1
:100FE000B0FE8448006820607E480068606000F0C1
:100FF000B3FE10BC08BC18477E49096801607949F6
:1010000009684160704770B506000C0000F099FE59
:10101000744802687068131A2068401C01D10025CA
:1010200017E0744930680968884204D070689042BB
:1010300001D801250DE02068984207D92068C01A20
:1010400020603000FFF7D8FF002502E0002020607C
:10105000012500F081FE280070BC08BC1847012063
:101060006349086070476049096888695E49096892
:10107000C96A0422511A5C4A12689161704770B5BE
:1010800006000D0000F05DFE57480068C06B0028A8
:101090000BD101215448006840300170002D04D06C
:1010A0002800FFF793FC01F0B9F900F055FE00F0BD
:1010B00048FE4D480068C46B002C0AD0002E04D0B6
:1010C000002049490968C86303E0601E4649096871
:1010D000C8630021444800684030017000F03CFEC5
:1010E000200070BC08BC1847FFB581B00700140091
:1010F0001D0000F026FE3C480068403000780228C1
:1011000012D03949096808003C30C96BB943016005
:1011100001213548006840300170002D04D02800BE
:10112000FFF754FC01F07AF900F016FE00F009FE1A
:10113000002C03D02C480068C06B20602A4800684F
:1011400040300078022801D0002608E026490968CE
:1011500008003C30CA6B02998A43026001260021D4
:10116000214800684030017000F0F6FD300005B005
:10117000F0BC08BC1847FFB583B00D0016001F0077
:1011800001200290039C00F0DCFD002F01D0E06BF9
:1011900038604020005D019002214020015533005D
:1011A00001F056F90538042A2E303900E06B284347
:1011B000E06330E02000004068000040E0000040B4
:1011C000F400004018000040140000403C000040C3
:1011D00049444C45000000002F0E0000380000403C
:1011E000240000401C00004010000040400000406F
:1011F0002C00004030000040E06B401CE0630AE03F
:10120000E56308E00198022801D0E56301E00020D1
:10121000029000E0C046C046019801281AD1201D66
:1012200000F01FF96D49E06A0968884202D96B49EC
:10123000E06A08601422E16A5143694A8818211D56
:1012400000F0E8F86749E06A0968C96A884201D98C
:1012500001F0E4F800F080FD029807B0F0BC08BC93
:101260001847FFB583B00D0016001F000120019044
:10127000039C00200090002F01D0E06B38604020DC
:10128000005D0290022140200155330001F0E0F89A
:10129000051604080C0E1700E06B2843E0630EE00F
:1012A000E06B401CE0630AE0E56308E00298022876
:1012B00001D0E56301E00020019000E0C046C04697
:1012C000029801282CD148480068002813D1201D1D
:1012D00000F0C7F84149E06A0968884202D93F49ED
:1012E000E06A08601422E16A51433D4A8818211DD2
:1012F00000F090F804E0210018313C4800F08AF832
:101300003849E06A0968C96A884209D90C980028F6
:1013100003D001210C98016002E0012034490860EB
:10132000019807B0F0BC08BC1847F8B505000E00DE
:101330002C00002000904020075D02210155E06B49
:10134000401CE063012F2AD127480068002813D1F0
:10135000201D00F086F82149E06A0968884202D918
:101360001E49E06A08601422E16A51431C4A881849
:10137000211D00F04FF804E0210018311B4800F057
:1013800049F81849E06A0968C96A884207D9002EF5
:1013900002D00120306002E0012015490860F8BC4D
:1013A00008BC184770B50500002D02D10D48006833
:1013B00000E02800060000F0C4FC4020805D022808
:1013C00004D1002140208155012400E0002400F0D8
:1013D000C3FC200070BC08BC18470000200000407F
:1013E000680000401000004040000040E000004065
:1013F0002C0000400100083141600021C943816098
:1014000001000831C16001610021016070470021C5
:101410000161704742684A6093688B6093685960C5
:101420009160086103685B1C0360704710B40200A0
:101430000B685C1C01D1106907E01000083000E067
:101440004068446824689C42FAD944684C604C68FF
:10145000A160886041600A611468641C146010BC5B
:10146000704701000A694B6888689860081D09C8C0
:1014700058605068884201D1886850600020086137
:101480001068401E10601068704770B505000E00AF
:101490002C0000F056FC216CE06B4843216840189A
:1014A00060600020A0632068A060E06B401E216C9B
:1014B000484321684018E0600021C9434420015599
:1014C00045200155002E10D12069002801D10120AE
:1014D00000E00020002810D120001030FFF71EFD92
:1014E00000280AD000F09AFF07E020001030FFF734
:1014F00081FF20002430FFF77DFF00F02DFC01204C
:1015000070BC08BC1847F8B506000D001700069C13
:10151000002D01D1246000E02760E66325640121ED
:101520002000FFF7B2FFF8BC08BC1847F7B582B03F
:1015300007000D00002D01D1002601E03E006E43A2
:101540003000483000F055FC0400002C09D0200089
:1015500048300190009429003800049B019AFFF75D
:10156000D2FF200005B0F0BC08BC184770B50400DD
:1015700000F0E7FB4520055714E0606A002801D120
:10158000012000E00020002808D120002430FFF7CF
:10159000C5FC002803D0FFF762FD00E004E0681EF0
:1015A00000060516002DE8DCC0460021C943452091
:1015B000015500F0D1FB00F0C4FB4420055714E0B6
:1015C0002069002801D1012000E0002000280BD173
:1015D00020001030FFF7A2FC002801D0FFF73FFDEC
:1015E000681E0006051600E001E0002DE8DCC0469C
:1015F0000021C9434420015500F0AEFB70BC08BC7B
:10160000184770B5050000F09CFBA86BE96B884299
:1016100001D1012400E0002400F09EFB200070BCFA
:1016200008BC1847F8B504000F0015000020009012
:10163000A66B206C002827D0002D0FD13900226C1A
:10164000A06800F059FC216CA0684018A060616897
:10165000A068884218D32068A06015E03900226C89
:10166000E06800F049FC216CE068401AE060216805
:10167000E068884203D2216C6068401AE060022D65
:1016800002D1002E00D0761E701CA0630098F8BC1A
:1016900008BC1847FFB583B007001D00002002906A
:1016A0003C00C04600F04DFBA06BE16B884201D3CB
:1016B000022D21D12A0020000499FFF7B3FF060074
:1016C000606A002801D1012000E00020002808D134
:1016D00020002430FFF722FC002806D000F09EFEF8
:1016E00003E0002E01D000F099FE00F035FB012050
:1016F00007B0F0BC08BC18470598002803D100F0DB
:101700002BFB0020F4E70298002804D16846FFF77D
:1017100073FC0120029000F01FFBFFF78AF900F034
:1017200010FB44200157491C00D1015545200157A9
:10173000491C00D1015500F00FFB05A96846FFF7D1
:1017400062FC002819D12000FFF75BFF00280ED0B3
:10175000200010300599FFF7BAFB2000FFF706FFC5
:10176000FFF7AAF800289DD100F058FE9AE7200064
:10177000FFF7FCFEFFF7A0F894E72000FFF7F6FE66
:10178000FFF79AF80020B3E7FFB583B00500160015
:101790001F002C0000200190A06BE16B884201D358
:1017A000022F26D14520015700913A0020000499CC
:1017B000FFF738FF0098401C12D1606A002801D161
:1017C000012000E00020002810D120002430FFF785
:1017D000A5FB00280AD0002E08D00120306005E0CB
:1017E0000098401C01060916452001550120029071
:1017F00001E000200290029807B0F0BC08BC184736
:10180000FEB505000E002C0000200290A06B019098
:10181000E16B0198814223D945200157009101983D
:10182000401CA0630098401C12D1606A002801D1BE
:10183000012000E00020002810D120002430FFF714
:101840006DFB00280AD0002E08D00120306005E092
:101850000098401C0106091645200155012700E0AB
:1018600000273800FEBC08BC184770B5050000F022
:1018700068FAA86B002801D1012400E0002400F0E0
:101880006BFA200070BC08BC184770B504000D004E
:10189000206C00280ED0216CE0684018E060616880
:1018A000E068884201D32068E0602800226CE1688B
:1018B00000F022FB70BC08BC1847F7B582B00500E9
:1018C00000272C00C04600F03CFAA66B002E1CD06E
:1018D00020000399FFF7D9FF701EA063206900283C
:1018E00001D1012000E00020002807D120001030A5
:1018F000FFF714FB002801D000F090FD00F02CFA57
:10190000012005B0F0BC08BC18470498002803D19A
:1019100000F022FA0020F4E7002F03D16846FFF719
:101920006BFB012700F018FAFFF783F800F009FAC3
:1019300044200157491C00D1015545200157491C3D
:1019400000D1015500F008FA04A96846FFF75BFBD7
:10195000002819D12000FFF788FF00280ED02000B2
:1019600024300499FFF7B3FA2000FFF7FFFDFEF7DC
:10197000A3FF0028A7D100F051FDA4E72000FFF746
:10198000F5FDFEF799FF9EE72000FFF7EFFDFEF75C
:1019900093FF2000FFF769FF002894D00020B0E7F4
:1019A000F3B583B0050000272C00C04600F0C9F94C
:1019B000A66B002E18D0701EA0632069002801D1EC
:1019C000012000E00020002807D120001030FFF7A0
:1019D000A5FA002801D000F021FD00F0BDF901209A
:1019E00005B0F0BC08BC18470498002803D100F0EB
:1019F000B3F90020F4E7002F03D101A8FFF7FCFAA8
:101A0000012700F0A9F9FFF714F800F09AF9442033
:101A10000157491C00D1015545200157491C00D1EF
:101A2000015500F099F904A901A8FFF7ECFA002884
:101A300019D12000FFF719FF00280ED02000243014
:101A40000499FFF744FA2000FFF790FDFEF734FFFA
:101A50000028ABD100F0E2FCA8E72000FFF786FDEC
:101A6000FEF72AFFA2E72000FFF780FDFEF724FF24
:101A70002000FFF7FAFE002898D00020B0E7F7B565
:101A800084B0050000272C00C04600F05AF9A06B76
:101A90000190019800281CD0E66820000599FFF706
:101AA000F4FEE660606A002801D1012000E0002019
:101AB000002807D120002430FFF730FA002801D099
:101AC00000F0ACFC00F048F9012007B0F0BC08BC05
:101AD00018470698002803D100F03EF90020F4E7EB
:101AE000002F03D102A8FFF787FA012700F034F98D
:101AF000FEF79FFF00F025F944200157491C00D153
:101B0000015545200157491C00D1015500F024F929
:101B100006A902A8FFF777FA002819D12000FFF7DD
:101B2000A4FE00280ED0200024300699FFF7CFF93C
:101B30002000FFF71BFDFEF7BFFE0028A5D100F037
:101B40006DFCA2E72000FFF711FDFEF7B5FE9CE754
:101B50002000FFF70BFDFEF7AFFE2000FFF785FE2C
:101B6000002892D00020B0E7F7B584B00500160039
:101B70002C0000200390A06B02900298002827D030
:101B800044200157019120000599FFF77EFE02983D
:101B9000401EA0630198401C12D12069002801D189
:101BA000012000E00020002810D120001030FFF7B5
:101BB000B5F900280AD0002E08D00120306005E0D9
:101BC0000198401C0106091644200155012700E038
:101BD0000027380007B0F0BC08BC1847F3B581B047
:101BE00005002C0000200090A06B002807D0E768BB
:101BF00020000299FFF749FEE760012600E0002679
:101C00003000FEBC08BC184770B5040000F099F81D
:101C1000A56B00F0A1F8280070BC08BC184770B58F
:101C20000400250000F08DF8A96BE86B461A00F05F
:101C300093F8300070BC08BC18470100886B7047EF
:101C400070B504002500280000F027F970BC08BC1E
:101C5000184701008A6B002A01D1012000E0002012
:101C6000704701008A6BCB6B9A4201D1012000E0E2
:101C70000020704730B40300001F0C1D0460001FDB
:101C80003F4C0460001F0360001F3E4C0460001FB7
:101C90003D4C0460001F3D4C0460001F3C4C046040
:101CA000001F3C4C0460001F3B4C0460001F3B4C79
:101CB0000460001F3A4C0460001F3A4C0460001F8F
:101CC000394C0460001F394C0460001F641004602C
:101CD000001F0260001F1F240460CC07E40F03D024
:101CE000202504682C430460001F0024046030BCDD
:101CF000704700212E4AD1602E48110088610321CF
:101D000051615114C968102291432B4AD1601100CE
:101D1000096910221143284A11612849284A116093
:101D20002421284A11600121214A5160704710B5D1
:101D3000FFF7DFFF00F09EFA002010BC08BC184738
:101D4000704710B500F06EFB1F480068401C1E492C
:101D5000086010BC08BC184710B51B480068002874
:101D60000AD019480068401E17490860080000683A
:101D7000002801D100F062FB10BC08BC184700002D
:101D8000AAAAAAAA121212121111111110101010DF
:101D900009090909080808080707070706060606CB
:101DA00005050505040404040303030302020202FB
:101DB000004000E0983A000000F0FFFF3C230000E4
:101DC00000F1FFFF00F2FFFF4C000040444AD00842
:101DD000C000444A10600022424B5A60424A434BC2
:101DE0005A6000221A6001003F4A4A601A000A60E5
:101DF0007047F8B5040000200090FEF71AFE3C483A
:101E00000068002804D1FFF7E1FF0120384908608D
:101E1000002C08D008346007400F04D06007400F42
:101E20000821081A0419002C31D02F4884422ED2E0
:101E30002C4F3800056801E02F002D686868A0422B
:101E400002D228680028F7D1284885421FD0386878
:101E500008300090286838606868001B102810D986
:101E60002E196868001B70606C6071681D4800E086
:101E70000068026852688A42FAD3026832600660DB
:101E8000C0461C4968680968081A1A490860FEF7C4
:101E900013FD0098F8BC08BC184770B50600350063
:101EA000002E16D0083D2C00FEF7C3FD61680D48DA
:101EB00000E00068026852688A42FAD30268226031
:101EC00004600C496068096840180A490860FEF718
:101ED000F3FC70BC08BC18470648006870477047A0
:101EE0002401004058000040F81700006000004046
:101EF00054000040500000407847C046030052E3C1
:101F00002A00009A03C010E20800000A0130D1E460
:101F100002005CE30C2082E001C0D1940130C0E4F7
:101F20000130D13401C0C094042042E20130C034F9
:101F3000033011E28700000A042052E21B00003A3D
:101F400003C031E7020053E30800000A0F00008AD3
:101F50002C34A0E104C0B1E5042052E20C3C83E142
:101F6000043080E4F9FFFF2A011081E20F0000EA4B
:101F70002C38A0E104C0B1E5042052E20C3883E122
:101F8000043080E4F9FFFF2A021081E2070000EA32
:101F90002C3CA0E104C0B1E5042052E20C3483E102
:101FA000043080E4F9FFFF2A031081E20000A0E181
:101FB000822FB0E10130D12401C0D1240120D144CD
:101FC0000130C02401C0C0240120C0441EFF2FE105
:101FD000013090E12100004A0020B0E3A03071E020
:101FE0001A00003A203271E00F00003A203471E00C
:101FF0000100003A00C0A0E3200000EAA03371E035
:10200000810340200220B2E0203371E00103402030
:102010000220B2E0A03271E0810240200220B2E052
:10202000203271E0010240200220B2E0A03171E0D4
:10203000810140200220B2E0203171E00101402006
:102040000220B2E0A03071E0810040200220B2E026
:10205000011050E00010A0310200A2E01EFF2FE1AD
:10206000022111E20010614240C032E00000602213
:10207000203271E01D00003A203471E00F00003A78
:102080000113A0E1203471E03F2382E30B00003A0A
:102090000113A0E1203471E03F2682E30700003AFB
:1020A0000113A0E1203471E03F2982E30113A02154
:1020B0003F2C8223003071E21D00002A2113A02151
:1020C000A03371E0810340200220B2E0203371E0B0
:1020D000010340200220B2E0A03271E081024020E2
:1020E0000220B2E0203271E0010240200220B2E082
:1020F000A03171E0810140200220B2E0203171E086
:10210000010140200220B2E0EBFFFF2AA03071E085
:10211000810040200220B2E0011050E00010A03108
:102120000200A2E0CCCFB0E10000604200106122CA
:102130001EFF2FE1CCCFB0E10000604201402DE94D
:102140000000B0E30000A0E10240BDE81EFF2FE167
:10215000704770477047000010402DE9202052E280
:102160000500003A1850B1E8202052E21850A0E8CB
:102170001850B1E81850A0E8F9FFFF2A02CEB0E1EC
:102180001850B1281850A0281800B1481800A048CD
:102190001040BDE802CFB0E1043091240430802427
:1021A0001EFF2F01822FB0E1B230D1200120D14497
:1021B000B230C0200120C0441EFF2FE10E50A0E12C
:1021C000180000EB05E0A0E10050B0E10D10A0E127
:1021D0000A30A0E10700C0E300D0A0E160D08DE2AA
:1021E00020402DE909F8FFEB2040BDE80060A0E3A6
:1021F0000070A0E30080A0E300B0A0E30710C1E3FB
:1022000005C0A0E1C009ACE8C009ACE8C009ACE871
:10221000C009ACE801D0A0E11EFF2FE10400C046D8
:10222000C0462000FDF7EAFF00009FE51EFF2FE1FA
:102230001C19004001C08FE21CFF2FE1014918204A
:10224000ABDFFEE7260002001EFF2FE17847C04605
:102250000020B0E3203171E079FFFF3AA03271E055
:102260006EFFFF3A203471E063FFFF3A00C0A0E345
:1022700082FFFFEA7847C0466C019FE5000090E5C9
:1022800000E090E564019FE50200BEE8001080E5F3
:102290000100BEE800F06FE1FF7FDEE80000A0E192
:1022A0003CE09EE504F05EE2000000EF1EFF2FE13F
:1022B00004E08EE201002DE900204DE90000A0E1DC
:1022C00004D04DE20100BDE8004020E900E0A0E1BB
:1022D0000100BDE8FF7F4EE90000A0E13CE04EE2D6
:1022E00000004FE101002EE900019FE5000090E5AC
:1022F00001002EE9F0009FE5001090E500E081E587
:10230000EC009FE50FE0A0E110FF2FE1D8009FE572
:10231000000090E500E090E5D0009FE50200BEE8F7
:10232000001080E50100BEE800F06FE1FF7FDEE80D
:102330000000A0E13CE09EE504F05EE201002DE932
:1023400000204DE90000A0E104D04DE20100BDE80D
:10235000004020E900E0A0E10100BDE8FF7F4EE978
:102360000000A0E13CE04EE200004FE101002EE958
:1023700078009FE5000090E501002EE968009FE5E8
:10238000001090E500E081E568009FE50FE0A0E126
:1023900010FF2FE1000050E30200000A50009FE50B
:1023A0000FE0A0E110FF2FE10100A0E348109FE53E
:1023B000000081E544009FE5000080E528009FE5DE
:1023C000000090E500E090E520009FE50200BEE8F7
:1023D000001080E50100BEE800F06FE1FF7FDEE85D
:1023E0000000A0E13CE09EE504F05EE21000004049
:1023F0004C000040C10B0000C3070000004000E09B
:1024000030F0FFFF00C09FE51CFF2FE1891700009F
:1024100000C09FE51CFF2FE1691B00007847C04604
:10242000A0FFFFEA7847C04600000FE1801080E37C
:1024300001F021E1800000E21EFF2FE17847C04655
:1024400000000FE18000C0E300F021E11EFF2FE15A
:102450007847C04601C05EE50C0053E10100003A38
:102460000C30DEE7000000EA0330DEE783C08EE0D8
:102470001CFF2FE1942400000000004068000000D1
:1024800048010000FC24000068000040381F0000E4
:1024900070010000000000000000000000000000CB
:1024A000000000000000000000000000000000002C
:1024B000000000000000000000000000000000001C
:1024C000000000000000000000000000000000000C
:1024D00000000000000000000000000000000000FC
:1024E0000F270000F81700000000000000000000A7
:0C24F000000000000000000000000000E0
:0400000500000104F2
:00000001FF
